{
  "contractName": "TokenManagementSystem",
  "abi": [
    {
      "inputs": [
        {
          "internalType": "uint256",
          "name": "entryid",
          "type": "uint256"
        },
        {
          "internalType": "uint256",
          "name": "binweight",
          "type": "uint256"
        },
        {
          "internalType": "uint256",
          "name": "itoken",
          "type": "uint256"
        },
        {
          "internalType": "uint256",
          "name": "iphoneno",
          "type": "uint256"
        }
      ],
      "name": "addTransaction",
      "outputs": [],
      "stateMutability": "nonpayable",
      "type": "function"
    },
    {
      "inputs": [],
      "name": "viewTransactions",
      "outputs": [
        {
          "internalType": "uint256[]",
          "name": "",
          "type": "uint256[]"
        },
        {
          "internalType": "uint256[]",
          "name": "",
          "type": "uint256[]"
        },
        {
          "internalType": "uint256[]",
          "name": "",
          "type": "uint256[]"
        },
        {
          "internalType": "uint256[]",
          "name": "",
          "type": "uint256[]"
        }
      ],
      "stateMutability": "view",
      "type": "function",
      "constant": true
    },
    {
      "inputs": [
        {
          "internalType": "uint256",
          "name": "iphoneno",
          "type": "uint256"
        },
        {
          "internalType": "uint256",
          "name": "newtokens",
          "type": "uint256"
        }
      ],
      "name": "updateBalance",
      "outputs": [],
      "stateMutability": "nonpayable",
      "type": "function"
    },
    {
      "inputs": [
        {
          "internalType": "uint256",
          "name": "phoneno",
          "type": "uint256"
        },
        {
          "internalType": "uint256",
          "name": "token",
          "type": "uint256"
        }
      ],
      "name": "addToken",
      "outputs": [],
      "stateMutability": "nonpayable",
      "type": "function"
    },
    {
      "inputs": [
        {
          "internalType": "uint256",
          "name": "phoneno",
          "type": "uint256"
        },
        {
          "internalType": "uint256",
          "name": "token",
          "type": "uint256"
        }
      ],
      "name": "updateToken",
      "outputs": [],
      "stateMutability": "nonpayable",
      "type": "function"
    },
    {
      "inputs": [],
      "name": "viewTokens",
      "outputs": [
        {
          "internalType": "uint256[]",
          "name": "",
          "type": "uint256[]"
        },
        {
          "internalType": "uint256[]",
          "name": "",
          "type": "uint256[]"
        }
      ],
      "stateMutability": "view",
      "type": "function",
      "constant": true
    },
    {
      "inputs": [
        {
          "internalType": "uint256",
          "name": "from",
          "type": "uint256"
        },
        {
          "internalType": "uint256",
          "name": "to",
          "type": "uint256"
        },
        {
          "internalType": "uint256",
          "name": "token",
          "type": "uint256"
        }
      ],
      "name": "transferToken",
      "outputs": [],
      "stateMutability": "nonpayable",
      "type": "function"
    }
  ],
  "bytecode": "0x608060405234801561001057600080fd5b50610abf806100206000396000f3fe608060405234801561001057600080fd5b506004361061007d5760003560e01c806358453fef1161005b57806358453fef146100d9578063c12d1d82146100f5578063f89f248714610111578063fba5dd2b146101325761007d565b806317b9ebec146100825780634bf5bf351461009e5780635192a107146100bd575b600080fd5b61009c6004803603810190610097919061072b565b61014e565b005b6100a66101fb565b6040516100b4929190610829565b60405180910390f35b6100d760048036038101906100d29190610860565b6102ae565b005b6100f360048036038101906100ee919061072b565b6103b9565b005b61010f600480360381019061010a919061072b565b61043c565b005b6101196104ad565b60405161012994939291906108c7565b60405180910390f35b61014c60048036038101906101479190610928565b610611565b005b6007600083815260200190815260200160002060009054906101000a900460ff161561017957600080fd5b6000829080600181540180825580915050600190039060005260206000200160009091909190915055600181908060018154018082558091505060019003906000526020600020016000909190919091505560016007600084815260200190815260200160002060006101000a81548160ff0219169083151502179055505050565b606080600060018180548060200260200160405190810160405280929190818152602001828054801561024d57602002820191906000526020600020905b815481526020019060010190808311610239575b505050505091508080548060200260200160405190810160405280929190818152602001828054801561029f57602002820191906000526020600020905b81548152602001906001019080831161028b575b50505050509050915091509091565b6006600085815260200190815260200160002060009054906101000a900460ff16156102d957600080fd5b600284908060018154018082558091505060019003906000526020600020016000909190919091505560038390806001815401808255809150506001900390600052602060002001600090919091909150556004829080600181540180825580915050600190039060005260206000200160009091909190915055600581908060018154018082558091505060019003906000526020600020016000909190919091505561038781836103b9565b60016006600086815260200190815260200160002060006101000a81548160ff02191690831515021790555050505050565b60005b6000805490508110156104375782600082815481106103de576103dd61097b565b5b9060005260206000200154036104245781600182815481106104035761040261097b565b5b90600052602060002001600082825461041c91906109d9565b925050819055505b808061042f90610a0d565b9150506103bc565b505050565b60005b6000805490508110156104a857600081815481106104605761045f61097b565b5b906000526020600020015483036104955781600182815481106104865761048561097b565b5b90600052602060002001819055505b80806104a090610a0d565b91505061043f565b505050565b60608060608060026003600460058380548060200260200160405190810160405280929190818152602001828054801561050657602002820191906000526020600020905b8154815260200190600101908083116104f2575b505050505093508280548060200260200160405190810160405280929190818152602001828054801561055857602002820191906000526020600020905b815481526020019060010190808311610544575b50505050509250818054806020026020016040519081016040528092919081815260200182805480156105aa57602002820191906000526020600020905b815481526020019060010190808311610596575b50505050509150808054806020026020016040519081016040528092919081815260200182805480156105fc57602002820191906000526020600020905b8154815260200190600101908083116105e8575b50505050509050935093509350935090919293565b60005b6000805490508110156106ea57600081815481106106355761063461097b565b5b9060005260206000200154840361067c57816001828154811061065b5761065a61097b565b5b9060005260206000200160008282546106749190610a55565b925050819055505b600081815481106106905761068f61097b565b5b906000526020600020015483036106d75781600182815481106106b6576106b561097b565b5b9060005260206000200160008282546106cf91906109d9565b925050819055505b80806106e290610a0d565b915050610614565b50505050565b600080fd5b6000819050919050565b610708816106f5565b811461071357600080fd5b50565b600081359050610725816106ff565b92915050565b60008060408385031215610742576107416106f0565b5b600061075085828601610716565b925050602061076185828601610716565b9150509250929050565b600081519050919050565b600082825260208201905092915050565b6000819050602082019050919050565b6107a0816106f5565b82525050565b60006107b28383610797565b60208301905092915050565b6000602082019050919050565b60006107d68261076b565b6107e08185610776565b93506107eb83610787565b8060005b8381101561081c57815161080388826107a6565b975061080e836107be565b9250506001810190506107ef565b5085935050505092915050565b6000604082019050818103600083015261084381856107cb565b9050818103602083015261085781846107cb565b90509392505050565b6000806000806080858703121561087a576108796106f0565b5b600061088887828801610716565b945050602061089987828801610716565b93505060406108aa87828801610716565b92505060606108bb87828801610716565b91505092959194509250565b600060808201905081810360008301526108e181876107cb565b905081810360208301526108f581866107cb565b9050818103604083015261090981856107cb565b9050818103606083015261091d81846107cb565b905095945050505050565b600080600060608486031215610941576109406106f0565b5b600061094f86828701610716565b935050602061096086828701610716565b925050604061097186828701610716565b9150509250925092565b7f4e487b7100000000000000000000000000000000000000000000000000000000600052603260045260246000fd5b7f4e487b7100000000000000000000000000000000000000000000000000000000600052601160045260246000fd5b60006109e4826106f5565b91506109ef836106f5565b9250828201905080821115610a0757610a066109aa565b5b92915050565b6000610a18826106f5565b91507fffffffffffffffffffffffffffffffffffffffffffffffffffffffffffffffff8203610a4a57610a496109aa565b5b600182019050919050565b6000610a60826106f5565b9150610a6b836106f5565b9250828203905081811115610a8357610a826109aa565b5b9291505056fea26469706673582212206dfc7beb7a12013ffcc7874f284391b0f7be33ad6e364e9654d31c344355db4e64736f6c63430008130033",
  "immutableReferences": {},
  "source": "// SPDX-License-Identifier: MIT\npragma solidity >=0.4.22 <0.9.0;\n\ncontract TokenManagementSystem {\n  \n  uint[] _phoneno;\n  uint[] _tokens;\n\n  uint[] _entryids;\n  uint[] _binweight;\n  uint[] _itokens;\n  uint[] _iphoneno;\n\n  mapping(uint=>bool) _registeredentries;\n  mapping(uint=>bool) _registeredUsers;\n\n  function addTransaction(uint entryid,uint binweight,uint itoken,uint iphoneno) public {\n    require(!_registeredentries[entryid]);\n\n    _entryids.push(entryid);\n    _binweight.push(binweight);\n    _itokens.push(itoken);\n    _iphoneno.push(iphoneno);\n\n    updateBalance(iphoneno, itoken);\n\n    _registeredentries[entryid]=true;\n  }\n\n  function viewTransactions() public view returns(uint[] memory,uint[] memory, uint[] memory, uint[] memory){\n    return (_entryids,_binweight,_itokens,_iphoneno);\n  }\n\n  function updateBalance(uint iphoneno,uint newtokens) public {\n    uint i;\n    for(i=0;i<_phoneno.length;i++){\n      if(_phoneno[i]==iphoneno){\n        _tokens[i]+=newtokens;\n      }\n    }\n  }\n\n  function addToken(uint phoneno,uint token) public {\n    require(!_registeredUsers[phoneno]);\n    _phoneno.push(phoneno);\n    _tokens.push(token);\n    _registeredUsers[phoneno]=true;\n  }\n\n  function updateToken(uint phoneno,uint token) public {\n    uint i;\n    for(i=0;i<_phoneno.length;i++){\n      if(phoneno==_phoneno[i]){\n        _tokens[i]=token;\n      }\n    }\n  }\n\n  function viewTokens() public view returns (uint[] memory,uint[] memory) {\n    return(_phoneno,_tokens);\n  }\n\n  function transferToken(uint from,uint to, uint token) public {\n    uint i;\n    for(i=0;i<_phoneno.length;i++) {\n      if(from==_phoneno[i]) {\n        _tokens[i]-=token;\n      }\n      if(to==_phoneno[i]){\n        _tokens[i]+=token;\n      }\n    }\n  }\n\n}\n",
  "sourcePath": "/Users/ms/Downloads/green/contracts/demo.sol",
  "compiler": {
    "name": "solc",
    "version": "0.8.19+commit.7dd6d404.Emscripten.clang"
  },
  "schemaVersion": "3.4.16",
  "updatedAt": "2024-03-12T06:10:29.339Z",
  "networkType": "ethereum",
  "devdoc": {
    "kind": "dev",
    "methods": {},
    "version": 1
  },
  "userdoc": {
    "kind": "user",
    "methods": {},
    "version": 1
  }
}